{
  "contractName": "Purchase",
  "abi": [
    {
      "inputs": [],
      "stateMutability": "payable",
      "type": "constructor",
      "payable": true
    },
    {
      "inputs": [],
      "name": "InvalidState",
      "type": "error"
    },
    {
      "inputs": [],
      "name": "OnlyBuyer",
      "type": "error"
    },
    {
      "inputs": [],
      "name": "OnlySeller",
      "type": "error"
    },
    {
      "inputs": [],
      "name": "ValueNotEven",
      "type": "error"
    },
    {
      "anonymous": false,
      "inputs": [],
      "name": "Aborted",
      "type": "event"
    },
    {
      "anonymous": false,
      "inputs": [],
      "name": "ItemRecieved",
      "type": "event"
    },
    {
      "anonymous": false,
      "inputs": [],
      "name": "PurchaseConfirmed",
      "type": "event"
    },
    {
      "anonymous": false,
      "inputs": [],
      "name": "SellerRefunded",
      "type": "event"
    },
    {
      "inputs": [],
      "name": "buyer",
      "outputs": [
        {
          "internalType": "address payable",
          "name": "",
          "type": "address"
        }
      ],
      "stateMutability": "view",
      "type": "function",
      "constant": true
    },
    {
      "inputs": [],
      "name": "seller",
      "outputs": [
        {
          "internalType": "address payable",
          "name": "",
          "type": "address"
        }
      ],
      "stateMutability": "view",
      "type": "function",
      "constant": true
    },
    {
      "inputs": [],
      "name": "state",
      "outputs": [
        {
          "internalType": "enum Purchase.State",
          "name": "",
          "type": "uint8"
        }
      ],
      "stateMutability": "view",
      "type": "function",
      "constant": true
    },
    {
      "inputs": [],
      "name": "value",
      "outputs": [
        {
          "internalType": "uint256",
          "name": "",
          "type": "uint256"
        }
      ],
      "stateMutability": "view",
      "type": "function",
      "constant": true
    },
    {
      "inputs": [],
      "name": "abort",
      "outputs": [],
      "stateMutability": "nonpayable",
      "type": "function"
    },
    {
      "inputs": [],
      "name": "confirmPurchase",
      "outputs": [],
      "stateMutability": "payable",
      "type": "function",
      "payable": true
    },
    {
      "inputs": [],
      "name": "confrimReceived",
      "outputs": [],
      "stateMutability": "nonpayable",
      "type": "function"
    },
    {
      "inputs": [],
      "name": "refundSeller",
      "outputs": [],
      "stateMutability": "nonpayable",
      "type": "function"
    }
  ],
  "bytecode": "0x608060405233600160006101000a81548173ffffffffffffffffffffffffffffffffffffffff021916908373ffffffffffffffffffffffffffffffffffffffff1602179055506002346200005491906200011d565b6000819055503460005460026200006c919062000155565b14620000af576040517f08c379a0000000000000000000000000000000000000000000000000000000008152600401620000a6906200023d565b60405180910390fd5b6200025f565b6000819050919050565b7f4e487b7100000000000000000000000000000000000000000000000000000000600052601260045260246000fd5b7f4e487b7100000000000000000000000000000000000000000000000000000000600052601160045260246000fd5b60006200012a82620000b5565b91506200013783620000b5565b9250826200014a5762000149620000bf565b5b828204905092915050565b60006200016282620000b5565b91506200016f83620000b5565b9250817fffffffffffffffffffffffffffffffffffffffffffffffffffffffffffffffff0483118215151615620001ab57620001aa620000ee565b5b828202905092915050565b600082825260208201905092915050565b7f5468652070726f76696465642065746865722068617320746f2062652065766560008201527f6e00000000000000000000000000000000000000000000000000000000000000602082015250565b600062000225602183620001b6565b91506200023282620001c7565b604082019050919050565b60006020820190508181036000830152620002588162000216565b9050919050565b610cc5806200026f6000396000f3fe60806040526004361061007b5760003560e01c80638b3746dd1161004e5780638b3746dd14610118578063c19d93fb1461012f578063c7981b1b1461015a578063d6960697146101715761007b565b806308551a531461008057806335a063b4146100ab5780633fa4f245146100c25780637150d8ae146100ed575b600080fd5b34801561008c57600080fd5b5061009561017b565b6040516100a291906108f2565b60405180910390f35b3480156100b757600080fd5b506100c06101a1565b005b3480156100ce57600080fd5b506100d761036b565b6040516100e49190610926565b60405180910390f35b3480156100f957600080fd5b50610102610371565b60405161010f91906108f2565b60405180910390f35b34801561012457600080fd5b5061012d610397565b005b34801561013b57600080fd5b50610144610562565b60405161015191906109b8565b60405180910390f35b34801561016657600080fd5b5061016f610575565b005b61017961074d565b005b600160009054906101000a900473ffffffffffffffffffffffffffffffffffffffff1681565b600160009054906101000a900473ffffffffffffffffffffffffffffffffffffffff1673ffffffffffffffffffffffffffffffffffffffff163373ffffffffffffffffffffffffffffffffffffffff1614610231576040517f08c379a000000000000000000000000000000000000000000000000000000000815260040161022890610a56565b60405180910390fd5b600080600381111561024657610245610941565b5b600260149054906101000a900460ff16600381111561026857610267610941565b5b146102a8576040517f08c379a000000000000000000000000000000000000000000000000000000000815260040161029f90610ae8565b60405180910390fd5b7f72c874aeff0b183a56e2b79c71b46e1aed4dee5e09862134b8821ba2fddbf8bf60405160405180910390a16003600260146101000a81548160ff021916908360038111156102fa576102f9610941565b5b0217905550600160009054906101000a900473ffffffffffffffffffffffffffffffffffffffff1673ffffffffffffffffffffffffffffffffffffffff166108fc479081150290604051600060405180830381858888f19350505050158015610367573d6000803e3d6000fd5b5050565b60005481565b600260009054906101000a900473ffffffffffffffffffffffffffffffffffffffff1681565b600260009054906101000a900473ffffffffffffffffffffffffffffffffffffffff1673ffffffffffffffffffffffffffffffffffffffff163373ffffffffffffffffffffffffffffffffffffffff1614610427576040517f08c379a000000000000000000000000000000000000000000000000000000000815260040161041e90610b7a565b60405180910390fd5b600180600381111561043c5761043b610941565b5b600260149054906101000a900460ff16600381111561045e5761045d610941565b5b1461049e576040517f08c379a000000000000000000000000000000000000000000000000000000000815260040161049590610ae8565b60405180910390fd5b7fddb101f17feed7667a6cbdb9ed598053957a877f10ca3eb638deb2a1cc0cc05f60405160405180910390a160028060146101000a81548160ff021916908360038111156104ef576104ee610941565b5b0217905550600260009054906101000a900473ffffffffffffffffffffffffffffffffffffffff1673ffffffffffffffffffffffffffffffffffffffff166108fc6000549081150290604051600060405180830381858888f1935050505015801561055e573d6000803e3d6000fd5b5050565b600260149054906101000a900460ff1681565b600160009054906101000a900473ffffffffffffffffffffffffffffffffffffffff1673ffffffffffffffffffffffffffffffffffffffff163373ffffffffffffffffffffffffffffffffffffffff1614610605576040517f08c379a00000000000000000000000000000000000000000000000000000000081526004016105fc90610a56565b60405180910390fd5b600280600381111561061a57610619610941565b5b600260149054906101000a900460ff16600381111561063c5761063b610941565b5b1461067c576040517f08c379a000000000000000000000000000000000000000000000000000000000815260040161067390610ae8565b60405180910390fd5b7ffda69c32bcfdba840a167777906b173b607eb8b4d8853b97a80d26e613d858db60405160405180910390a16003600260146101000a81548160ff021916908360038111156106ce576106cd610941565b5b0217905550600160009054906101000a900473ffffffffffffffffffffffffffffffffffffffff1673ffffffffffffffffffffffffffffffffffffffff166108fc600054600361071e9190610bc9565b9081150290604051600060405180830381858888f19350505050158015610749573d6000803e3d6000fd5b5050565b600080600381111561076257610761610941565b5b600260149054906101000a900460ff16600381111561078457610783610941565b5b146107c4576040517f08c379a00000000000000000000000000000000000000000000000000000000081526004016107bb90610ae8565b60405180910390fd5b60005460026107d39190610bc9565b341480610815576040517f08c379a000000000000000000000000000000000000000000000000000000000815260040161080c90610c6f565b60405180910390fd5b7fd5d55c8a68912e9a110618df8d5e2e83b8d83211c57a8ddd1203df92885dc88160405160405180910390a133600260006101000a81548173ffffffffffffffffffffffffffffffffffffffff021916908373ffffffffffffffffffffffffffffffffffffffff1602179055506001600260146101000a81548160ff021916908360038111156108a8576108a7610941565b5b02179055505050565b600073ffffffffffffffffffffffffffffffffffffffff82169050919050565b60006108dc826108b1565b9050919050565b6108ec816108d1565b82525050565b600060208201905061090760008301846108e3565b92915050565b6000819050919050565b6109208161090d565b82525050565b600060208201905061093b6000830184610917565b92915050565b7f4e487b7100000000000000000000000000000000000000000000000000000000600052602160045260246000fd5b6004811061098157610980610941565b5b50565b600081905061099282610970565b919050565b60006109a282610984565b9050919050565b6109b281610997565b82525050565b60006020820190506109cd60008301846109a9565b92915050565b600082825260208201905092915050565b7f4f6e6c792073656c6c65722063616e2063616c6c20746869732066756e63746960008201527f6f6e000000000000000000000000000000000000000000000000000000000000602082015250565b6000610a406022836109d3565b9150610a4b826109e4565b604082019050919050565b60006020820190508181036000830152610a6f81610a33565b9050919050565b7f5468652066756e6374696f6e2063616e6e6f742062652063616c6c656420696e60008201527f2063757272656e74207374617465000000000000000000000000000000000000602082015250565b6000610ad2602e836109d3565b9150610add82610a76565b604082019050919050565b60006020820190508181036000830152610b0181610ac5565b9050919050565b7f4f6e6c792062757965722063616e2063616c6c20746869732066756e6374696f60008201527f6e00000000000000000000000000000000000000000000000000000000000000602082015250565b6000610b646021836109d3565b9150610b6f82610b08565b604082019050919050565b60006020820190508181036000830152610b9381610b57565b9050919050565b7f4e487b7100000000000000000000000000000000000000000000000000000000600052601160045260246000fd5b6000610bd48261090d565b9150610bdf8361090d565b9250817fffffffffffffffffffffffffffffffffffffffffffffffffffffffffffffffff0483118215151615610c1857610c17610b9a565b5b828202905092915050565b7f54686520636f6e646974696f6e206973206e6f74207472756500000000000000600082015250565b6000610c596019836109d3565b9150610c6482610c23565b602082019050919050565b60006020820190508181036000830152610c8881610c4c565b905091905056fea264697066735822122086ee60b920d709379fe25040042dcd2265d5f0d26c175cd180f978f2f0233bc164736f6c634300080d0033",
  "immutableReferences": {},
  "source": "// SPDX-License-Identifier: GPL-3.0\npragma solidity ^0.8.4;\n\ncontract Purchase {\n    uint256 public value;\n    address payable public seller;\n    address payable public buyer;\n\n    enum State {\n        Created,\n        Locked,\n        Released,\n        Inactive\n    }\n    // state variable has default value of first member `State.Created`\n    State public state;\n\n    modifier condition(bool condition_) {\n        require(condition_,\"The condition is not true\");\n        _;\n    }\n\n    /// Only buyer can call this function\n    error OnlyBuyer();\n    /// Only seller can call this function\n    error OnlySeller();\n    /// The function cannot be called in current state\n    error InvalidState();\n    /// The provided value has to be even\n    error ValueNotEven();\n\n    modifier onlyBuyer() {\n        // if(msg.sender != buyer)\n        //     revert OnlyBuyer();\n        require(msg.sender == buyer, \"Only buyer can call this function\");\n        _;\n    }\n\n    modifier onlySeller() {\n        // if(msg.sender != seller)\n        //     revert OnlySeller();\n        require(msg.sender == seller, \"Only seller can call this function\");\n        _;\n    }\n\n    modifier inState(State state_) {\n        // if (state!=state_)\n        //     revert InvalidState();\n        require(\n            state == state_,\n            \"The function cannot be called in current state\"\n        );\n        _;\n    }\n\n    event Aborted();\n    event PurchaseConfirmed();\n    event ItemRecieved();\n    event SellerRefunded();\n\n    // Ensure msg.value is an even number because division will truncate if its an odd number\n    constructor() payable {\n        seller = payable(msg.sender);\n        value = msg.value / 2;\n        // if ( (2*value)!=msg.value)\n        //     revert ValueNotEven();\n        require((2 * value) == msg.value, \"The provided ether has to be even\");\n    }\n\n    /// Abort the purchase and reclaim ether. Can only be called by seller before contract is locked\n    function abort() external onlySeller inState(State.Created) {\n        emit Aborted();\n        state = State.Inactive;\n        // Transfer here can be called directly as its re-entry safe as the state is changed\n        seller.transfer(address(this).balance);\n    }\n\n    /// Confirm the purchase as buyer. Transaction has to include `2*value` ether.\n    /// The ether will be locked until confirmReceived is called\n    function confirmPurchase()\n        external\n        payable\n        inState(State.Created)\n        condition(msg.value == (2 * value))\n    {\n        emit PurchaseConfirmed();\n        buyer = payable(msg.sender);\n        state = State.Locked;\n    }\n\n    /// Confirm that buyer recevied the item. This will release locked ether\n    function confrimReceived() external onlyBuyer inState(State.Locked) {\n        emit ItemRecieved();\n        state = State.Released;\n        buyer.transfer(value);\n    }\n\n    /// This function refunds the seller i.e pays back the locked funds of seller\n    function refundSeller() external onlySeller inState(State.Released) {\n        emit SellerRefunded();\n        state = State.Inactive;\n        seller.transfer(3 * value);\n    }\n}\n",
  "sourcePath": "/home/s/programming/ethereum/remote_purcahse/contracts/Purchase.sol",
  "compiler": {
    "name": "solc",
    "version": "0.8.13+commit.abaa5c0e.Emscripten.clang"
  },
  "schemaVersion": "3.4.7",
  "updatedAt": "2022-05-25T15:50:02.541Z",
  "networkType": "ethereum",
  "devdoc": {
    "kind": "dev",
    "methods": {},
    "version": 1
  },
  "userdoc": {
    "errors": {
      "InvalidState()": [
        {
          "notice": "The function cannot be called in current state"
        }
      ],
      "OnlyBuyer()": [
        {
          "notice": "Only buyer can call this function"
        }
      ],
      "OnlySeller()": [
        {
          "notice": "Only seller can call this function"
        }
      ],
      "ValueNotEven()": [
        {
          "notice": "The provided value has to be even"
        }
      ]
    },
    "kind": "user",
    "methods": {
      "abort()": {
        "notice": "Abort the purchase and reclaim ether. Can only be called by seller before contract is locked"
      },
      "confirmPurchase()": {
        "notice": "Confirm the purchase as buyer. Transaction has to include `2*value` ether. The ether will be locked until confirmReceived is called"
      },
      "confrimReceived()": {
        "notice": "Confirm that buyer recevied the item. This will release locked ether"
      },
      "refundSeller()": {
        "notice": "This function refunds the seller i.e pays back the locked funds of seller"
      }
    },
    "version": 1
  }
}